:108000001280311287AC12801112807B1280228084
:10801000F512847A1283EA128443E542B450028056
:10802000F02212847A1283EA128443E542B450F2B9
:1080300022128038128051227400F545F546F5472A
:10804000F548F549F54CF54DF54E7401F54AF54BFB
:108050002212805B1280621284EA227550007551F0
:1080600001227530381286D975300E1286D97530D6
:10807000011286D97530061286D922E542B400066F
:108080001280CF0280CBB401061280D90280CBB41B
:1080900002061280E30280CBB404061280ED028057
:1080A000CBB405061280FA0280CBB4060612810713
:1080B0000280CBB407061281140280CBB4080612EA
:1080C00081210280CBB409031281251284EA221295
:1080D00081FA12874812812F2212820712877012AA
:1080E0008192221282071287981281A6221282CAD6
:1080F0001287C31282CB128389221282CA1287D7B7
:108100001282F3128389221282CA1287EB12831918
:10811000128389221282CA1287FF12833512838941
:10812000221283A0221288411283B812838922E589
:108130004704B4040812875C1281437400F54712A7
:10814000855122E54CB40110E54DB40114E54EB45F
:10815000011812817F028173754C011285F402812E
:1081600073754D011285F4028173754E011285F409
:10817000028173740075470075480012853E22E540
:108180004AB40107E54504D4F54522E54604D4F593
:108190004622E54804B403081287841281A67400BD
:1081A000F54812855122E54904B403051281BF74D4
:1081B00000F5497400754700754800128551221278
:1081C00081D6E54A04B403051281E37401F54A122D
:1081D000867012859622754C00754D00754E001202
:1081E00085F422E54B04B40A031281F2F54B1285A3
:1081F000A32212886D12847A80FB12821412851ACF
:1082000012821A1284FA2212821412851A12822001
:108210001284FA2212823802822612823F028226B9
:1082200012824602822612824D1282581282541203
:108230008264E552B408EF2275520475531022751A
:108240005202755301227552007553012212827732
:108250001282AD22128296227C607D60DDFE128445
:108260007ADCF72212826B12827122E55204F552F7
:1082700022E55323F55322E552F55412827F221250
:10828000828612828E2274602554F9875522746882
:108290002554F987562212829D1282A522746025E8
:1082A00052F9A7552274682552F9A756221282B4B2
:1082B0001282BE2274602552F9E74553F722746892
:1082C0002552F9E7F44553F4F72222E54EB40102B2
:1082D000317FE54DB40112128382E54CB4010F12D7
:1082E000837B1283741285F422754E0080EC754DE9
:1082F0000080EFE54EB40102317FE54DB40102315B
:108300007FE54CB4010612838202830F754E001282
:10831000837B754C001285F422E54EB40102317F57
:10832000E54DB40102317FE54CB40102317F128387
:10833000601285F422317FE54EB40102317FE54DB4
:10834000B40102317FE54CB40102317F12836A121D
:1083500085F47480128392128397740012839222A0
:10836000754E01754D00754C0022754E00754D001F
:10837000754C0022754C011285F422754D01128551
:10838000F422754E011285F4227400754700754879
:10839000002290FFEFF0227FFF7EFFDEFEDFFA2259
:1083A000E54CB4010FE54DB4000A128815754D0176
:1083B000754C002212882B22E549B4020331A62213
:1083C000E54EB40102317FE54DB40114754E01E56F
:1083D0004CB40111754D01754C00E54904F5492275
:1083E000754E0080EA754D0080ED7540017543EFD4
:1083F000128410E541B4000C128405E540B406F087
:108400007540002222E54004F540E54303F5432290
:10841000E54390FFF0F090FFF1E0F544B4EF047510
:10842000410122B4F70475410222B4FB04754103F3
:1084300022B4FD0475410422B4FE04754105227581
:10844000410022E541B40109E5409401B4042880CB
:10845000EEB40209E5402403B4081C80E2B4030929
:10846000E5402407B40C1080D6B40409E540240B81
:10847000B4100480CA7450F542221284BA12848D5A
:1084800012849D1284A81284B31284C122E5512360
:10849000F551E55004B408027400F55022746825C3
:1084A00050F9E790FFC5F02274602550F9E790FF7E
:1084B000C6F02290FFC7E551F02290FFC77400F08C
:1084C000227A107B10DBFEDAFA22FFFFBBFFFFFFF0
:1084D000BBFF407C3A465646FB40FFFFFFFFFFFFD5
:1084E000FFFF2070E0D0BA370E1C1284FA12853ECE
:1084F0001285511285961285A3221285011285F4E8
:1085000022128508128511229084CA796812853357
:10851000229084D279601285332212852112852A15
:10852000229084DA7968128533229084E27960128D
:108530008533227A00EA93F7090ABA08F822E5455A
:1085400090FFC3F074FF90FFC2F0E54690FFC1F0CA
:1085500022A847A948AA497400B8000302857144BB
:1085600040B801030285714420B8020302857144BA
:1085700010B900030285814408B9010302858144D2
:1085800004BA00030285914402BA010302859144B2
:108590000164FFF59022E54AB4010412871A221201
:1085A000873122E54BB4010574F90285EFB4020569
:1085B00074A40285EFB4030574B00285EFB404051A
:1085C00074990285EFB4050574920285EFB406052F
:1085D00074820285EFB4070574D80285EFB40805EC
:1085E00074800285EFB4090574900285EF74C09021
:1085F000FFC0F0221285FE12860612860E22E54C7E
:10860000B4001302861AE54DB40013028622E54E2B
:10861000B4001302862A12862E221286382212866F
:10862000442212864E2212865A22128664227460D6
:108630002402F9E74440F72274602402F9E7F44485
:1086400040F4F72274602402F9E74404F7227460CE
:108650002402F9E7F44404F4F72274602406F9E7ED
:108660004404F72274602406F9E7F44404F4F72282
:108670007530011286D922753400128686E53404DD
:10868000F534B53CF522853682853783E53493F59C
:10869000311286E32287311286E322753201753367
:1086A000041286C3227532017533091286C32275FE
:1086B000320175330C1286C32275320275330212F1
:1086C00086C3227480AA32BA010524000286D1240E
:1086D000402533F5301286D9221286ED90FFE0E571
:1086E00030F0221286ED90FFE1E531F02290FFE2BA
:1086F000E020E7F922D19B9088A9858236858337CF
:10870000753C0BD17722128883D19B9088B48582E7
:1087100036858337753C0BD17722128883D19B90A5
:1087200088BF858236858337753C07D17712897A71
:1087300022128883D19B9088BF85823685833775C6
:108740003C07D17712898722128896D1B99088CBBD
:10875000858236858337753C04D17722128896D17D
:10876000B99088CF858236858337753C06D17722CC
:10877000128896D1B99088D5858236858337753C25
:1087800007D17722128896D1B99088DC8582368508
:108790008337753C0CD17722128896D1B99088E83E
:1087A000858236858337753C06D17722128883D13E
:1087B0009B9088C6858236858337753C05D17712B4
:1087C000896022128896D1B99088EE858236858399
:1087D00037753C07D17722128896D1B99088F585F4
:1087E0008236858337753C08D17722128896D1B9B5
:1087F0009088FD858236858337753C09D1772212B2
:1088000088961286B9908906858236858337753CAD
:108810000B128677221288961286B990891185826A
:1088200036858337753C0612867722128896128623
:10883000B9908917858236858337753C0D12867706
:10884000221288961286B9908924858236858337CC
:10885000753C0E1286772212888312869B9089328D
:10886000858236858337753C0A1286772212888383
:1088700012869B90893C858236858337753C0B1226
:1088800086772212869B9089478582368583377545
:108890003C0C128677221286B990894785823685EC
:1088A0008337753C0C12867722506C617965722093
:1088B00031205570506C61796572203220557050AE
:1088C0006C6179657220504C41592042414C4C57A3
:1088D000414C4B2121535452494B45215354524949
:1088E0004B454F55542121214F55542121215349A6
:1088F0004E474C4521444F55424C45212154524945
:10890000504C45212121484F4D4552554E212121A2
:1089100021535445414C2143414E204E4F54205346
:108920005445414C534143524946494345204849E7
:108930005421504C41592042414C4C2147414D4516
:10894000204F56455221202020202020202020206A
:108950002020201289941289A21286A51289D12280
:108960001289941289B21286A51289EB2212899477
:108970001289B91286AF1289F6221289941289C31C
:108980001286AF128A06221289941289CA1286AF01
:10899000128A112212899B753B0022753040128683
:1089A000D922128A1C128A2C128A34128A3C128A08
:1089B0004422128A64128A4C22128A5C128A54124D
:1089C0008A6C22128A74128A7C22128A84128A7415
:1089D000227970128695797212869579731286952E
:1089E0007974128695797112869522797912869515
:1089F00079761286952279781286957977128695FE
:108A0000797A12869522797B128695797C128695E1
:108A100022797D128695797B12869522908ABF797C
:108A200070028A94908AF77975028A94908AC7793D
:108A300071028A94908ADF7972028A94908AE77927
:108A400073028A94908AEF7974028A94908AFF79EB
:108A500076028A94908B077977028A94908ACF79EC
:108A600078028A94908B0F7979028A94908B177987
:108A70007A028A94908B1F797B028A94908B277953
:108A80007C028A94908B2F797D028A94908B37791F
:108A90007E028A94A73B053B128A9C2285823885F8
:108AA0008339753A00128AB0053AE53AB408F622DD
:108AB000853882853983E53A93F5311286E32202BF
:108AC0000A160B0212101E00040A040A0A1F0009EB
:108AD0001509011F090B01021E06070A12020001F7
:108AE00011131D03050A04020A1E0B160A020001D7
:108AF000030B0F0B1703010109150901101E0000DC
:108B00001E02001F040400001E020202001F0000DB
:108B1000020B160B02020000011113111D01001DB2
:108B20000B0D15150609060C1E0A170A1E080F0064
:0F8B30000E1B0E001F0A0A0000000000000000CC
:00000001FF
